{
  "_format": "hh-sol-artifact-1",
  "contractName": "MultiFeeDistribution",
  "sourceName": "contracts/staking/MultiFeeDistribution.sol",
  "abi": [
    {
      "inputs": [
        {
          "internalType": "address",
          "name": "_stakingToken",
          "type": "address"
        }
      ],
      "stateMutability": "nonpayable",
      "type": "constructor"
    },
    {
      "anonymous": false,
      "inputs": [
        {
          "indexed": true,
          "internalType": "address",
          "name": "previousOwner",
          "type": "address"
        },
        {
          "indexed": true,
          "internalType": "address",
          "name": "newOwner",
          "type": "address"
        }
      ],
      "name": "OwnershipTransferred",
      "type": "event"
    },
    {
      "anonymous": false,
      "inputs": [
        {
          "indexed": false,
          "internalType": "address",
          "name": "token",
          "type": "address"
        },
        {
          "indexed": false,
          "internalType": "uint256",
          "name": "amount",
          "type": "uint256"
        }
      ],
      "name": "Recovered",
      "type": "event"
    },
    {
      "anonymous": false,
      "inputs": [
        {
          "indexed": false,
          "internalType": "uint256",
          "name": "reward",
          "type": "uint256"
        }
      ],
      "name": "RewardAdded",
      "type": "event"
    },
    {
      "anonymous": false,
      "inputs": [
        {
          "indexed": true,
          "internalType": "address",
          "name": "user",
          "type": "address"
        },
        {
          "indexed": true,
          "internalType": "address",
          "name": "rewardsToken",
          "type": "address"
        },
        {
          "indexed": false,
          "internalType": "uint256",
          "name": "reward",
          "type": "uint256"
        }
      ],
      "name": "RewardPaid",
      "type": "event"
    },
    {
      "anonymous": false,
      "inputs": [
        {
          "indexed": false,
          "internalType": "address",
          "name": "token",
          "type": "address"
        },
        {
          "indexed": false,
          "internalType": "uint256",
          "name": "newDuration",
          "type": "uint256"
        }
      ],
      "name": "RewardsDurationUpdated",
      "type": "event"
    },
    {
      "anonymous": false,
      "inputs": [
        {
          "indexed": true,
          "internalType": "address",
          "name": "user",
          "type": "address"
        },
        {
          "indexed": false,
          "internalType": "uint256",
          "name": "amount",
          "type": "uint256"
        },
        {
          "indexed": false,
          "internalType": "bool",
          "name": "locked",
          "type": "bool"
        }
      ],
      "name": "Staked",
      "type": "event"
    },
    {
      "anonymous": false,
      "inputs": [
        {
          "indexed": true,
          "internalType": "address",
          "name": "user",
          "type": "address"
        },
        {
          "indexed": false,
          "internalType": "uint256",
          "name": "receivedAmount",
          "type": "uint256"
        },
        {
          "indexed": false,
          "internalType": "uint256",
          "name": "penaltyPaid",
          "type": "uint256"
        }
      ],
      "name": "Withdrawn",
      "type": "event"
    },
    {
      "inputs": [
        {
          "internalType": "address",
          "name": "_rewardsToken",
          "type": "address"
        }
      ],
      "name": "addReward",
      "outputs": [],
      "stateMutability": "nonpayable",
      "type": "function"
    },
    {
      "inputs": [
        {
          "internalType": "address",
          "name": "account",
          "type": "address"
        }
      ],
      "name": "claimableRewards",
      "outputs": [
        {
          "components": [
            {
              "internalType": "address",
              "name": "token",
              "type": "address"
            },
            {
              "internalType": "uint256",
              "name": "amount",
              "type": "uint256"
            }
          ],
          "internalType": "struct MultiFeeDistribution.RewardData[]",
          "name": "rewards",
          "type": "tuple[]"
        }
      ],
      "stateMutability": "view",
      "type": "function"
    },
    {
      "inputs": [
        {
          "internalType": "address",
          "name": "user",
          "type": "address"
        }
      ],
      "name": "earnedBalances",
      "outputs": [
        {
          "internalType": "uint256",
          "name": "total",
          "type": "uint256"
        },
        {
          "components": [
            {
              "internalType": "uint256",
              "name": "amount",
              "type": "uint256"
            },
            {
              "internalType": "uint256",
              "name": "unlockTime",
              "type": "uint256"
            }
          ],
          "internalType": "struct MultiFeeDistribution.LockedBalance[]",
          "name": "earningsData",
          "type": "tuple[]"
        }
      ],
      "stateMutability": "view",
      "type": "function"
    },
    {
      "inputs": [
        {
          "internalType": "bool",
          "name": "claimRewards",
          "type": "bool"
        }
      ],
      "name": "exit",
      "outputs": [],
      "stateMutability": "nonpayable",
      "type": "function"
    },
    {
      "inputs": [
        {
          "internalType": "address[]",
          "name": "_rewardTokens",
          "type": "address[]"
        }
      ],
      "name": "getReward",
      "outputs": [],
      "stateMutability": "nonpayable",
      "type": "function"
    },
    {
      "inputs": [
        {
          "internalType": "address",
          "name": "_rewardsToken",
          "type": "address"
        }
      ],
      "name": "getRewardForDuration",
      "outputs": [
        {
          "internalType": "uint256",
          "name": "",
          "type": "uint256"
        }
      ],
      "stateMutability": "view",
      "type": "function"
    },
    {
      "inputs": [],
      "name": "incentivesController",
      "outputs": [
        {
          "internalType": "contract IChefIncentivesController",
          "name": "",
          "type": "address"
        }
      ],
      "stateMutability": "view",
      "type": "function"
    },
    {
      "inputs": [
        {
          "internalType": "address",
          "name": "_rewardsToken",
          "type": "address"
        }
      ],
      "name": "lastTimeRewardApplicable",
      "outputs": [
        {
          "internalType": "uint256",
          "name": "",
          "type": "uint256"
        }
      ],
      "stateMutability": "view",
      "type": "function"
    },
    {
      "inputs": [],
      "name": "lockDuration",
      "outputs": [
        {
          "internalType": "uint256",
          "name": "",
          "type": "uint256"
        }
      ],
      "stateMutability": "view",
      "type": "function"
    },
    {
      "inputs": [
        {
          "internalType": "address",
          "name": "user",
          "type": "address"
        }
      ],
      "name": "lockedBalances",
      "outputs": [
        {
          "internalType": "uint256",
          "name": "total",
          "type": "uint256"
        },
        {
          "internalType": "uint256",
          "name": "unlockable",
          "type": "uint256"
        },
        {
          "internalType": "uint256",
          "name": "locked",
          "type": "uint256"
        },
        {
          "components": [
            {
              "internalType": "uint256",
              "name": "amount",
              "type": "uint256"
            },
            {
              "internalType": "uint256",
              "name": "unlockTime",
              "type": "uint256"
            }
          ],
          "internalType": "struct MultiFeeDistribution.LockedBalance[]",
          "name": "lockData",
          "type": "tuple[]"
        }
      ],
      "stateMutability": "view",
      "type": "function"
    },
    {
      "inputs": [],
      "name": "lockedSupply",
      "outputs": [
        {
          "internalType": "uint256",
          "name": "",
          "type": "uint256"
        }
      ],
      "stateMutability": "view",
      "type": "function"
    },
    {
      "inputs": [
        {
          "internalType": "address",
          "name": "user",
          "type": "address"
        },
        {
          "internalType": "uint256",
          "name": "amount",
          "type": "uint256"
        },
        {
          "internalType": "bool",
          "name": "withPenalty",
          "type": "bool"
        }
      ],
      "name": "mint",
      "outputs": [],
      "stateMutability": "nonpayable",
      "type": "function"
    },
    {
      "inputs": [
        {
          "internalType": "address",
          "name": "",
          "type": "address"
        }
      ],
      "name": "minters",
      "outputs": [
        {
          "internalType": "bool",
          "name": "",
          "type": "bool"
        }
      ],
      "stateMutability": "view",
      "type": "function"
    },
    {
      "inputs": [],
      "name": "mintersAreSet",
      "outputs": [
        {
          "internalType": "bool",
          "name": "",
          "type": "bool"
        }
      ],
      "stateMutability": "view",
      "type": "function"
    },
    {
      "inputs": [],
      "name": "owner",
      "outputs": [
        {
          "internalType": "address",
          "name": "",
          "type": "address"
        }
      ],
      "stateMutability": "view",
      "type": "function"
    },
    {
      "inputs": [
        {
          "internalType": "address",
          "name": "tokenAddress",
          "type": "address"
        },
        {
          "internalType": "uint256",
          "name": "tokenAmount",
          "type": "uint256"
        }
      ],
      "name": "recoverERC20",
      "outputs": [],
      "stateMutability": "nonpayable",
      "type": "function"
    },
    {
      "inputs": [],
      "name": "renounceOwnership",
      "outputs": [],
      "stateMutability": "nonpayable",
      "type": "function"
    },
    {
      "inputs": [
        {
          "internalType": "address",
          "name": "",
          "type": "address"
        }
      ],
      "name": "rewardData",
      "outputs": [
        {
          "internalType": "uint256",
          "name": "periodFinish",
          "type": "uint256"
        },
        {
          "internalType": "uint256",
          "name": "rewardRate",
          "type": "uint256"
        },
        {
          "internalType": "uint256",
          "name": "lastUpdateTime",
          "type": "uint256"
        },
        {
          "internalType": "uint256",
          "name": "rewardPerTokenStored",
          "type": "uint256"
        },
        {
          "internalType": "uint256",
          "name": "balance",
          "type": "uint256"
        }
      ],
      "stateMutability": "view",
      "type": "function"
    },
    {
      "inputs": [
        {
          "internalType": "address",
          "name": "_rewardsToken",
          "type": "address"
        }
      ],
      "name": "rewardPerToken",
      "outputs": [
        {
          "internalType": "uint256",
          "name": "",
          "type": "uint256"
        }
      ],
      "stateMutability": "view",
      "type": "function"
    },
    {
      "inputs": [
        {
          "internalType": "uint256",
          "name": "",
          "type": "uint256"
        }
      ],
      "name": "rewardTokens",
      "outputs": [
        {
          "internalType": "address",
          "name": "",
          "type": "address"
        }
      ],
      "stateMutability": "view",
      "type": "function"
    },
    {
      "inputs": [
        {
          "internalType": "address",
          "name": "",
          "type": "address"
        },
        {
          "internalType": "address",
          "name": "",
          "type": "address"
        }
      ],
      "name": "rewards",
      "outputs": [
        {
          "internalType": "uint256",
          "name": "",
          "type": "uint256"
        }
      ],
      "stateMutability": "view",
      "type": "function"
    },
    {
      "inputs": [],
      "name": "rewardsDuration",
      "outputs": [
        {
          "internalType": "uint256",
          "name": "",
          "type": "uint256"
        }
      ],
      "stateMutability": "view",
      "type": "function"
    },
    {
      "inputs": [
        {
          "internalType": "contract IChefIncentivesController",
          "name": "_controller",
          "type": "address"
        }
      ],
      "name": "setIncentivesController",
      "outputs": [],
      "stateMutability": "nonpayable",
      "type": "function"
    },
    {
      "inputs": [
        {
          "internalType": "address[]",
          "name": "_minters",
          "type": "address[]"
        }
      ],
      "name": "setMinters",
      "outputs": [],
      "stateMutability": "nonpayable",
      "type": "function"
    },
    {
      "inputs": [
        {
          "internalType": "uint256",
          "name": "amount",
          "type": "uint256"
        },
        {
          "internalType": "bool",
          "name": "lock",
          "type": "bool"
        }
      ],
      "name": "stake",
      "outputs": [],
      "stateMutability": "nonpayable",
      "type": "function"
    },
    {
      "inputs": [],
      "name": "stakingToken",
      "outputs": [
        {
          "internalType": "contract IMintableToken",
          "name": "",
          "type": "address"
        }
      ],
      "stateMutability": "view",
      "type": "function"
    },
    {
      "inputs": [
        {
          "internalType": "address",
          "name": "user",
          "type": "address"
        }
      ],
      "name": "totalBalance",
      "outputs": [
        {
          "internalType": "uint256",
          "name": "amount",
          "type": "uint256"
        }
      ],
      "stateMutability": "view",
      "type": "function"
    },
    {
      "inputs": [],
      "name": "totalSupply",
      "outputs": [
        {
          "internalType": "uint256",
          "name": "",
          "type": "uint256"
        }
      ],
      "stateMutability": "view",
      "type": "function"
    },
    {
      "inputs": [
        {
          "internalType": "address",
          "name": "newOwner",
          "type": "address"
        }
      ],
      "name": "transferOwnership",
      "outputs": [],
      "stateMutability": "nonpayable",
      "type": "function"
    },
    {
      "inputs": [
        {
          "internalType": "address",
          "name": "user",
          "type": "address"
        }
      ],
      "name": "unlockedBalance",
      "outputs": [
        {
          "internalType": "uint256",
          "name": "amount",
          "type": "uint256"
        }
      ],
      "stateMutability": "view",
      "type": "function"
    },
    {
      "inputs": [
        {
          "internalType": "address",
          "name": "",
          "type": "address"
        },
        {
          "internalType": "address",
          "name": "",
          "type": "address"
        }
      ],
      "name": "userRewardPerTokenPaid",
      "outputs": [
        {
          "internalType": "uint256",
          "name": "",
          "type": "uint256"
        }
      ],
      "stateMutability": "view",
      "type": "function"
    },
    {
      "inputs": [
        {
          "internalType": "uint256",
          "name": "amount",
          "type": "uint256"
        }
      ],
      "name": "withdraw",
      "outputs": [],
      "stateMutability": "nonpayable",
      "type": "function"
    },
    {
      "inputs": [],
      "name": "withdrawExpiredLocks",
      "outputs": [],
      "stateMutability": "nonpayable",
      "type": "function"
    },
    {
      "inputs": [
        {
          "internalType": "address",
          "name": "user",
          "type": "address"
        }
      ],
      "name": "withdrawableBalance",
      "outputs": [
        {
          "internalType": "uint256",
          "name": "amount",
          "type": "uint256"
        },
        {
          "internalType": "uint256",
          "name": "penaltyAmount",
          "type": "uint256"
        }
      ],
      "stateMutability": "view",
      "type": "function"
    }
  ],
  "bytecode": "0x60a06040523480156200001157600080fd5b506040516200314f3803806200314f833981016040819052620000349162000187565b60006200004062000183565b600080546001600160a01b0319166001600160a01b0383169081178255604051929350917f8be0079c531659141344cd1fd0a4f28419497f9722a3daafe3b4186f6b6457e0908290a3506001600160601b0319606082901b16608052604051637e51dad560e11b81526001600160a01b0382169063fca3b5aa90620000ca903090600401620001d9565b602060405180830381600087803b158015620000e557600080fd5b505af1158015620000fa573d6000803e3d6000fd5b505050506040513d601f19601f82011682018060405250810190620001209190620001b7565b50600280546001810182557f405787fa12a823e0f2b7631cc41b3ba8828b3321ca811111fa75cd3aa3bb5ace0180546001600160a01b039093166001600160a01b03199093168317905560009182526003602052604090912042910155620001ed565b3390565b60006020828403121562000199578081fd5b81516001600160a01b0381168114620001b0578182fd5b9392505050565b600060208284031215620001c9578081fd5b81518015158114620001b0578182fd5b6001600160a01b0391909116815260200190565b60805160601c612f0862000247600039806109e15280610aa05280610db95280610e74528061118752806113c652806114cb528061156b5280611aea5280611ba95280611c945280611ed0528061224e5250612f086000f3fe608060405234801561001057600080fd5b50600436106102065760003560e01c80638da5cb5b1161011a578063d1a1beb4116100ad578063e6c91a151161007c578063e6c91a1514610440578063e70b9e2714610453578063f122977714610466578063f2fde38b14610479578063f46eccc41461048c57610206565b8063d1a1beb4146103d9578063dc01f60d146103ec578063df3798761461040c578063e655dbd81461042d57610206565b8063abe50f19116100e9578063abe50f19146103a3578063af1df255146103b6578063bcd11014146103be578063ca5c7b91146103d157610206565b80638da5cb5b1461036b5780638fd9f2ca146103735780639c9b2e2114610388578063a01c77bc1461039b57610206565b80635e0fac2e1161019d578063715018a61161016c578063715018a61461031557806372f702f31461031d5780637bb7bed1146103325780637fd7d062146103455780638980f11f1461035857610206565b80635e0fac2e146102c9578063638634ee146102dc5780636eacd398146102ef5780637035ab981461030257610206565b80632e1a7d4d116101d95780632e1a7d4d14610275578063386a95251461028a57806348e5d9f814610292578063547d0096146102b657610206565b806302b629381461020b57806304554443146102355780630483a7f61461024a57806318160ddd1461026d575b600080fd5b61021e6102193660046128f2565b61049f565b60405161022c929190612dbe565b60405180910390f35b61023d6105cf565b60405161022c9190612d8c565b61025d6102583660046128f2565b6105d6565b60405161022c9493929190612dcc565b61023d610764565b610288610283366004612a9f565b61076a565b005b61023d610b0e565b6102a56102a03660046128f2565b610b15565b60405161022c959493929190612dfb565b6102886102c43660046129b2565b610b45565b61023d6102d73660046128f2565b610c16565b61023d6102ea3660046128f2565b610cae565b61023d6102fd3660046128f2565b610cdd565b61023d61031036600461290e565b610cf8565b610288610d15565b610325610db7565b60405161022c9190612b38565b610325610340366004612a9f565b610ddb565b6102886103533660046129b2565b610e05565b610288610366366004612946565b610e1a565b610325610f56565b61037b610f65565b60405161022c9190612c19565b6102886103963660046128f2565b610f6e565b61028861104e565b6102886103b1366004612acf565b6111ea565b610325611436565b61023d6103cc3660046128f2565b611445565b61023d61147f565b6102886103e7366004612971565b611485565b6103ff6103fa3660046128f2565b61171d565b60405161022c9190612bc1565b61041f61041a3660046128f2565b6118b8565b60405161022c929190612d95565b61028861043b3660046128f2565b6119dc565b61028861044e366004612a67565b611a56565b61023d61046136600461290e565b611c72565b61023d6104743660046128f2565b611c8f565b6102886104873660046128f2565b611ce3565b61037b61049a3660046128f2565b611ddb565b6001600160a01b0381166000908152600a60205260408120600381015482919080156105a5576001600160a01b0385166000908152600c6020526040812054815b8181101561058a576001600160a01b0388166000908152600c6020526040812080548390811061050c57fe5b9060005260206000209060020201600001549050806000141561052f5750610582565b6001600160a01b0389166000908152600c6020526040902080544291908490811061055657fe5b9060005260206000209060020201600101541115610574575061058a565b61057e8482611df0565b9350505b6001016104e0565b506105a0600261059a8585611e4a565b90611e8c565b945050505b6105c6836105c0838560010154611df090919063ffffffff16565b90611e4a565b93505050915091565b6277f88081565b6001600160a01b0381166000908152600b602052604081208190819060609082805b825481101561073c574283828154811061060e57fe5b906000526020600020906002020160010154111561070a578161068457825481900367ffffffffffffffff8111801561064657600080fd5b5060405190808252806020026020018201604052801561068057816020015b61066d612876565b8152602001906001900390816106655790505b5093505b82818154811061069057fe5b9060005260206000209060020201604051806040016040529081600082015481526020016001820154815250508483815181106106c957fe5b602002602001018190525081806001019250506107038382815481106106eb57fe5b60009182526020909120600290910201548690611df0565b9450610734565b61073183828154811061071957fe5b60009182526020909120600290910201548790611df0565b95505b6001016105f8565b5050506001600160a01b0385166000908152600a602052604090206002015493509193509193565b60085481565b600081116107935760405162461bcd60e51b815260040161078a90612c8e565b60405180910390fd5b61079c33611ece565b336000908152600a60205260408120600181015490919083116107d25760018201546107c89084611e4a565b60018301556109a7565b60006107eb836001015485611e4a90919063ffffffff16565b905080836003015410156108115760405162461bcd60e51b815260040161078a90612cf0565b6000600184015560038301546108279082611e4a565b600384015560005b336000908152600c6020526040812080548390811061084a57fe5b9060005260206000209060020201600001549050806000141561086d575061099c565b831580156108a85750336000908152600c6020526040902080544291908490811061089457fe5b906000526020600020906002020160010154115b1561091a5782935082856003015410156108d45760405162461bcd60e51b815260040161078a90612c4c565b60038501546108e39084611e4a565b6003860181905561090c57336000908152600c6020526040812061090691612890565b506109a4565b61091783600261208e565b92505b80831161095d5761092b8184611e4a565b336000908152600c6020526040902080548490811061094657fe5b6000918252602090912060029091020155506109a4565b336000908152600c6020526040902080548390811061097857fe5b600091825260208220600290910201818155600101556109988382611e4a565b9250505b60010161082f565b50505b60006109b38483611df0565b83549091506109c29082611e4a565b83556008546109d19082611e4a565b600855610a086001600160a01b037f00000000000000000000000000000000000000000000000000000000000000001633866120e7565b8115610ac5576001546001600160a01b0316638e2eba09306000604051908082528060200260200182016040528015610a4b578160200160208202803683370190505b506040518363ffffffff1660e01b8152600401610a69929190612b4c565b600060405180830381600087803b158015610a8357600080fd5b505af1158015610a97573d6000803e3d6000fd5b50505050610ac57f000000000000000000000000000000000000000000000000000000000000000083612139565b336001600160a01b03167f92ccf450a286a957af52509bc1c9939d1a6a481783e142e41e2499f0bb66ebc68584604051610b00929190612dbe565b60405180910390a250505050565b62093a8081565b60036020819052600091825260409091208054600182015460028301549383015460049093015491939092909185565b610b4d6121eb565b6000546001600160a01b03908116911614610b9d576040805162461bcd60e51b81526020600482018190526024820152600080516020612e89833981519152604482015290519081900360640190fd5b60055460ff1615610bad57600080fd5b60005b8151811015610c0557600160046000848481518110610bcb57fe5b6020908102919091018101516001600160a01b03168252810191909152604001600020805460ff1916911515919091179055600101610bb0565b50506005805460ff19166001179055565b6001600160a01b0381166000908152600a6020908152604080832060010154338452600c909252822090915b8154811015610ca65742828281548110610c5857fe5b9060005260206000209060020201600101541115610c7557610ca6565b610c9c828281548110610c8457fe5b60009182526020909120600290910201548490611df0565b9250600101610c42565b50505b919050565b6001600160a01b038116600090815260036020526040812054428111610cd45780610cd6565b425b9392505050565b6001600160a01b03166000908152600a602052604090205490565b600660209081526000928352604080842090915290825290205481565b610d1d6121eb565b6000546001600160a01b03908116911614610d6d576040805162461bcd60e51b81526020600482018190526024820152600080516020612e89833981519152604482015290519081900360640190fd5b600080546040516001600160a01b03909116907f8be0079c531659141344cd1fd0a4f28419497f9722a3daafe3b4186f6b6457e0908390a3600080546001600160a01b0319169055565b7f000000000000000000000000000000000000000000000000000000000000000081565b60028181548110610deb57600080fd5b6000918252602090912001546001600160a01b0316905081565b610e0e33611ece565b610e17816121ef565b50565b610e226121eb565b6000546001600160a01b03908116911614610e72576040805162461bcd60e51b81526020600482018190526024820152600080516020612e89833981519152604482015290519081900360640190fd5b7f00000000000000000000000000000000000000000000000000000000000000006001600160a01b0316826001600160a01b03161415610ec45760405162461bcd60e51b815260040161078a90612cb9565b6001600160a01b03821660009081526003602052604090206002015415610efd5760405162461bcd60e51b815260040161078a90612d27565b610f19610f08610f56565b6001600160a01b03841690836120e7565b7f8c1256b8896378cd5044f80c202f9772b9d77dc85c8a6eb51967210b09bfaa288282604051610f4a929190612ba8565b60405180910390a15050565b6000546001600160a01b031690565b60055460ff1681565b610f766121eb565b6000546001600160a01b03908116911614610fc6576040805162461bcd60e51b81526020600482018190526024820152600080516020612e89833981519152604482015290519081900360640190fd5b6001600160a01b03811660009081526003602052604090206002015415610fec57600080fd5b600280546001810182557f405787fa12a823e0f2b7631cc41b3ba8828b3321ca811111fa75cd3aa3bb5ace0180546001600160a01b039093166001600160a01b0319909316831790556000918252600360205260409091204291810182905555565b61105733611ece565b336000908152600b60209081526040808320600a90925282208154919290914284600019830183811061108657fe5b906000526020600020906002020160010154116110c3576002830154336000908152600b602052604081209193506110be9190612890565b611138565b60005b8181101561113657428582815481106110db57fe5b90600052602060002090600202016001015411156110f857611136565b611107858281548110610c8457fe5b925084818154811061111557fe5b600091825260208220600290910201818155600190810191909155016110c6565b505b60028301546111479083611e4a565b600284015582546111589083611e4a565b83556008546111679083611e4a565b6008556009546111779083611e4a565b6009556111ae6001600160a01b037f00000000000000000000000000000000000000000000000000000000000000001633846120e7565b336001600160a01b03167f92ccf450a286a957af52509bc1c9939d1a6a481783e142e41e2499f0bb66ebc6836000604051610b00929190612dbe565b6000821161120a5760405162461bcd60e51b815260040161078a90612c24565b61121333611ece565b6008546112209083611df0565b600855336000908152600a60205260409020805461123e9084611df0565b815581156113a4576009546112539084611df0565b60095560028101546112659084611df0565b600282015560006112906277f88061128a62093a806112844282611e8c565b9061208e565b90611df0565b336000908152600b60205260409020549091508015806112e15750336000908152600b60205260409020805483919060001984019081106112cd57fe5b906000526020600020906002020160010154105b1561133057336000908152600b6020908152604080832081518083019092528882528183018681528154600181810184559286529390942091516002909302909101918255915191015561139d565b336000908152600b60205260409020805461136c918791600019850190811061135557fe5b600091825260209091206002909102015490611df0565b336000908152600b602052604090208054600019840190811061138b57fe5b60009182526020909120600290910201555b50506113b9565b60018101546113b39084611df0565b60018201555b6113ee6001600160a01b037f000000000000000000000000000000000000000000000000000000000000000016333086612421565b336001600160a01b03167f37d4053e34fde482e96f6bcd424dfa31342cbd5fe184d497fb3c8bb4b4b975808484604051611429929190612dae565b60405180910390a2505050565b6001546001600160a01b031681565b6001600160a01b0381166000908152600360205260408120600101546114799064e8d4a510009061059a9062093a8061208e565b92915050565b60095481565b3360009081526004602052604090205460ff166114a157600080fd5b816114ab57611718565b6114b483611ece565b6040516340c10f1960e01b81526001600160a01b037f000000000000000000000000000000000000000000000000000000000000000016906340c10f19906115029030908690600401612ba8565b602060405180830381600087803b15801561151c57600080fd5b505af1158015611530573d6000803e3d6000fd5b505050506040513d601f19601f820116820180604052508101906115549190612a83565b506001600160a01b038316301415611595576115907f000000000000000000000000000000000000000000000000000000000000000083612139565b611718565b6008546115a29083611df0565b6008556001600160a01b0383166000908152600a6020526040902080546115c99084611df0565b815581156116c75760038101546115e09084611df0565b600382015560006115ff6277f88061128a62093a806112844282611e8c565b6001600160a01b0386166000908152600c6020526040902080549192509080158061164957508282600183038154811061163557fe5b906000526020600020906002020160010154105b1561168b5760408051808201909152868152602080820185815284546001818101875560008781529390932093516002909102909301928355519101556116bf565b61169e8683600184038154811061135557fe5b8260018303815481106116ad57fe5b60009182526020909120600290910201555b5050506116dc565b60018101546116d69084611df0565b60018201555b836001600160a01b03167f37d4053e34fde482e96f6bcd424dfa31342cbd5fe184d497fb3c8bb4b4b97580846000604051610b00929190612dae565b505050565b60025460609067ffffffffffffffff8111801561173957600080fd5b5060405190808252806020026020018201604052801561177357816020015b6117606128b1565b8152602001906001900390816117585790505b50905060005b81518110156118b257600081156117a8576001600160a01b0384166000908152600a60205260409020546117c5565b6001600160a01b0384166000908152600a60205260409020600201545b9050600082156117d7576008546117db565b6009545b9050600283815481106117ea57fe5b9060005260206000200160009054906101000a90046001600160a01b031684848151811061181457fe5b6020026020010151600001906001600160a01b031690816001600160a01b03168152505061188e64e8d4a5100061059a8787878151811061185157fe5b6020026020010151600001518661188960028a8154811061186e57fe5b6000918252602090912001546001600160a01b031688612481565b612518565b84848151811061189a57fe5b60209081029190910181015101525050600101611779565b50919050565b6001600160a01b0381166000908152600c6020526040812060609082805b82548110156119d457428382815481106118ec57fe5b90600052602060002090600202016001015411156119cc578161196257825481900367ffffffffffffffff8111801561192457600080fd5b5060405190808252806020026020018201604052801561195e57816020015b61194b612876565b8152602001906001900390816119435790505b5093505b82818154811061196e57fe5b9060005260206000209060020201604051806040016040529081600082015481526020016001820154815250508483815181106119a757fe5b602002602001018190525081806001019250506119c98382815481106106eb57fe5b94505b6001016118d6565b505050915091565b6119e46121eb565b6000546001600160a01b03908116911614611a34576040805162461bcd60e51b81526020600482018190526024820152600080516020612e89833981519152604482015290519081900360640190fd5b600180546001600160a01b0319166001600160a01b0392909216919091179055565b611a5f33611ece565b600080611a6b3361049f565b336000908152600c60205260408120929450909250611a8a9190612890565b336000908152600a60205260409020600381015460018201548254611ab492916105c09190611e4a565b81556000600182018190556003820155611ada611ad18484611df0565b60085490611e4a565b600855611b116001600160a01b037f00000000000000000000000000000000000000000000000000000000000000001633856120e7565b8115611bce576001546001600160a01b0316638e2eba09306000604051908082528060200260200182016040528015611b54578160200160208202803683370190505b506040518363ffffffff1660e01b8152600401611b72929190612b4c565b600060405180830381600087803b158015611b8c57600080fd5b505af1158015611ba0573d6000803e3d6000fd5b50505050611bce7f000000000000000000000000000000000000000000000000000000000000000083612139565b8315611c3757611c376002805480602002602001604051908101604052809291908181526020018280548015611c2d57602002820191906000526020600020905b81546001600160a01b03168152600190910190602001808311611c0f575b50505050506121ef565b336001600160a01b03167f92ccf450a286a957af52509bc1c9939d1a6a481783e142e41e2499f0bb66ebc68484604051610b00929190612dbe565b600760209081526000928352604080842090915290825290205481565b6000807f00000000000000000000000000000000000000000000000000000000000000006001600160a01b0316836001600160a01b031614611cd357600854611cd7565b6009545b9050610cd68382612481565b611ceb6121eb565b6000546001600160a01b03908116911614611d3b576040805162461bcd60e51b81526020600482018190526024820152600080516020612e89833981519152604482015290519081900360640190fd5b6001600160a01b038116611d805760405162461bcd60e51b8152600401808060200182810382526026815260200180612e426026913960400191505060405180910390fd5b600080546040516001600160a01b03808516939216917f8be0079c531659141344cd1fd0a4f28419497f9722a3daafe3b4186f6b6457e091a3600080546001600160a01b0319166001600160a01b0392909216919091179055565b60046020526000908152604090205460ff1681565b600082820183811015610cd6576040805162461bcd60e51b815260206004820152601b60248201527f536166654d6174683a206164646974696f6e206f766572666c6f770000000000604482015290519081900360640190fd5b6000610cd683836040518060400160405280601e81526020017f536166654d6174683a207375627472616374696f6e206f766572666c6f770000815250612587565b6000610cd683836040518060400160405280601a81526020017f536166654d6174683a206469766973696f6e206279207a65726f00000000000081525061261e565b7f00000000000000000000000000000000000000000000000000000000000000006001600160a01b03811660009081526003602052604081206009548290611f17908590612481565b600383018190559050611f2984610cae565b60028301556001600160a01b0385163014611fb7576001600160a01b0385166000908152600a6020526040902060020154611f68908690869084612518565b6001600160a01b038087166000818152600760209081526040808320948a168084529482528083209590955582825260068152848220938252928352838120859055908152600a909152205492505b60085460025460015b818110156120845760028181548110611fd557fe5b60009182526020808320909101546001600160a01b03168083526003909152604090912090975094506120088784612481565b60038601819055935061201a87610cae565b60028601556001600160a01b038816301461207c5761203b88888887612518565b6001600160a01b03808a166000818152600760209081526040808320948d168084529482528083209590955591815260068252838120928152919052208490555b600101611fc0565b5050505050505050565b60008261209d57506000611479565b828202828482816120aa57fe5b0414610cd65760405162461bcd60e51b8152600401808060200182810382526021815260200180612e686021913960400191505060405180910390fd5b604080516001600160a01b038416602482015260448082018490528251808303909101815260649091019091526020810180516001600160e01b031663a9059cbb60e01b179052611718908490612683565b6001600160a01b0382166000908152600360205260409020805442106121795761216f62093a8061059a8464e8d4a5100061208e565b60018201556121d0565b80546000906121889042611e4a565b905060006121ac64e8d4a5100061059a85600101548561208e90919063ffffffff16565b90506121c862093a8061059a64e8d4a510006112848886611df0565b600184015550505b42600282018190556121e59062093a80611df0565b90555050565b3390565b805160005b8181101561171857600083828151811061220a57fe5b6020908102919091018101513360009081526007835260408082206001600160a01b03841683529093529182205490925061224a9064e8d4a51000611e8c565b90507f00000000000000000000000000000000000000000000000000000000000000006001600160a01b0316826001600160a01b03161461238e576001600160a01b03821660009081526003602052604090208054806122bc5760405162461bcd60e51b815260040161078a90612d5e565b60048201546122ce426207e900611df0565b82101561237857600061235782876001600160a01b03166370a08231306040518263ffffffff1660e01b81526004016123079190612b38565b60206040518083038186803b15801561231f57600080fd5b505afa158015612333573d6000803e3d6000fd5b505050506040513d601f19601f820116820180604052508101906105c09190612ab7565b90508015612376576123698682612139565b6123738282611df0565b91505b505b6123828185611e4a565b83600401819055505050505b8061239a575050612419565b3360008181526007602090815260408083206001600160a01b03871680855292528220919091556123cb91836120e7565b816001600160a01b0316336001600160a01b03167f540798df468d7b23d11f156fdb954cb19ad414d150722a7b6d55ba369dea792e8360405161240e9190612d8c565b60405180910390a350505b6001016121f4565b604080516001600160a01b0380861660248301528416604482015260648082018490528251808303909101815260849091019091526020810180516001600160e01b03166323b872dd60e01b17905261247b908590612683565b50505050565b6000816124ab57506001600160a01b03821660009081526003602081905260409091200154611479565b6001600160a01b03831660009081526003602052604090206001810154600290910154610cd6916124f591859161059a91670de0b6b3a7640000916112849182906105c08c610cae565b6001600160a01b0385166000908152600360208190526040909120015490611df0565b6001600160a01b03808516600081815260076020908152604080832094881680845294825280832054938352600682528083209483529390529182205461257e919061128a90670de0b6b3a76400009061059a90612577908890611e4a565b889061208e565b95945050505050565b600081848411156126165760405162461bcd60e51b81526004018080602001828103825283818151815260200191508051906020019080838360005b838110156125db5781810151838201526020016125c3565b50505050905090810190601f1680156126085780820380516001836020036101000a031916815260200191505b509250505060405180910390fd5b505050900390565b6000818361266d5760405162461bcd60e51b81526020600482018181528351602484015283519092839260449091019190850190808383600083156125db5781810151838201526020016125c3565b50600083858161267957fe5b0495945050505050565b612695826001600160a01b031661283a565b6126e6576040805162461bcd60e51b815260206004820152601f60248201527f5361666545524332303a2063616c6c20746f206e6f6e2d636f6e747261637400604482015290519081900360640190fd5b600080836001600160a01b0316836040518082805190602001908083835b602083106127235780518252601f199092019160209182019101612704565b6001836020036101000a0380198251168184511680821785525050505050509050019150506000604051808303816000865af19150503d8060008114612785576040519150601f19603f3d011682016040523d82523d6000602084013e61278a565b606091505b5091509150816127e1576040805162461bcd60e51b815260206004820181905260248201527f5361666545524332303a206c6f772d6c6576656c2063616c6c206661696c6564604482015290519081900360640190fd5b80511561247b578080602001905160208110156127fd57600080fd5b505161247b5760405162461bcd60e51b815260040180806020018281038252602a815260200180612ea9602a913960400191505060405180910390fd5b6000813f7fc5d2460186f7233c927e7db2dcc703c0e500b653ca82273b7bfad8045d85a47081811480159061286e57508115155b949350505050565b604051806040016040528060008152602001600081525090565b5080546000825560020290600052602060002090810190610e1791906128c8565b604080518082019091526000808252602082015290565b5b808211156128e357600080825560018201556002016128c9565b5090565b8035610ca981612e1e565b600060208284031215612903578081fd5b8135610cd681612e1e565b60008060408385031215612920578081fd5b823561292b81612e1e565b9150602083013561293b81612e1e565b809150509250929050565b60008060408385031215612958578182fd5b823561296381612e1e565b946020939093013593505050565b600080600060608486031215612985578081fd5b833561299081612e1e565b92506020840135915060408401356129a781612e33565b809150509250925092565b600060208083850312156129c4578182fd5b823567ffffffffffffffff808211156129db578384fd5b818501915085601f8301126129ee578384fd5b8135818111156129fa57fe5b83810260405185828201018181108582111715612a1357fe5b604052828152858101935084860182860187018a1015612a31578788fd5b8795505b83861015612a5a57612a46816128e7565b855260019590950194938601938601612a35565b5098975050505050505050565b600060208284031215612a78578081fd5b8135610cd681612e33565b600060208284031215612a94578081fd5b8151610cd681612e33565b600060208284031215612ab0578081fd5b5035919050565b600060208284031215612ac8578081fd5b5051919050565b60008060408385031215612ae1578182fd5b82359150602083013561293b81612e33565b6000815180845260208085019450808401835b83811015612b2d578151805188528301518388015260409096019590820190600101612b06565b509495945050505050565b6001600160a01b0391909116815260200190565b6001600160a01b038381168252604060208084018290528451918401829052600092858201929091906060860190855b81811015612b9a578551851683529483019491830191600101612b7c565b509098975050505050505050565b6001600160a01b03929092168252602082015260400190565b602080825282518282018190526000919060409081850190868401855b82811015612c0c57815180516001600160a01b03168552860151868501529284019290850190600101612bde565b5091979650505050505050565b901515815260200190565b6020808252600e908201526d043616e6e6f74207374616b6520360941b604082015260600190565b60208082526022908201527f496e73756666696369656e742062616c616e63652061667465722070656e616c604082015261747960f01b606082015260800190565b602080825260119082015270043616e6e6f74207769746864726177203607c1b604082015260600190565b6020808252601d908201527f43616e6e6f74207769746864726177207374616b696e6720746f6b656e000000604082015260600190565b6020808252601d908201527f496e73756666696369656e7420756e6c6f636b65642062616c616e6365000000604082015260600190565b6020808252601c908201527f43616e6e6f742077697468647261772072657761726420746f6b656e00000000604082015260600190565b6020808252601490820152732ab735b737bbb7103932bbb0b932103a37b5b2b760611b604082015260600190565b90815260200190565b60008382526040602083015261286e6040830184612af3565b9182521515602082015260400190565b918252602082015260400190565b600085825284602083015283604083015260806060830152612df16080830184612af3565b9695505050505050565b948552602085019390935260408401919091526060830152608082015260a00190565b6001600160a01b0381168114610e1757600080fd5b8015158114610e1757600080fdfe4f776e61626c653a206e6577206f776e657220697320746865207a65726f2061646472657373536166654d6174683a206d756c7469706c69636174696f6e206f766572666c6f774f776e61626c653a2063616c6c6572206973206e6f7420746865206f776e65725361666545524332303a204552433230206f7065726174696f6e20646964206e6f742073756363656564a2646970667358221220c51e174fdb866ab8686923da775c5fc4033ce1694e0734f1c07c7855f94a7e4a64736f6c63430007060033",
  "linkReferences": {},
  "deployedLinkReferences": {}
}